0262710000000000000000042018ADUNBZ               00676296000599CONSIGSIAPE                                                     
1262713343228032345251000000000000000000000000000000000000000000     8COMPULSORIA0000000000000000000000000000000000000000000000
1262711052967042345251000000000000000000000000000000000000000000     8000000000000000044431500080000000000000000000000000000000
92627199999999999999990000002                                                                                                  
