201804006762960005992627111226650CARLOS AUGUSTO KLINK                                        4200000000000000345251INCLUSAO EFETUADA                                           180406000000172DFCOMPULSORIA0000000001500100
201804006762960005992627117696160PAULO CESAR THOMAZ                                          4200000000000000345251INCLUSAO EFETUADA                                           180406000000172DFCOMPULSORIA0000000001500100
201804006762960005992627123741570MARIA CLAUDIA CANDEIA DE SOUZA                              4200000000000000345251INCLUSAO EFETUADA                                           180406000000172DF000000000000000044371500080
